Component: ARM Compiler 5.06 update 6 (build 750) Tool: armlink [4d35ed]

==============================================================================

Section Cross References

    i2c.o(i.I2C_IRQHandler) refers to i2c.o(i.__ARM_common_switch8) for __ARM_common_switch8
    i2c.o(i.I2C_IRQHandler) refers to i2c.o(.data) for pi2c_data
    i2c.o(i.i2cConfig) refers to i2c.o(i.i2cConfig_Init) for i2cConfig_Init
    i2c.o(i.i2cConfig_Init) refers to i2c.o(i.__NVIC_SetPriority) for __NVIC_SetPriority
    i2c.o(i.i2cStart) refers to i2c.o(.data) for pi2c_data
    i2c_eeprom.o(i.i2c_eeprom_ack_polling) refers to i2c_eeprom.o(i.i2c_eeprom_common_write) for i2c_eeprom_common_write
    i2c_eeprom.o(i.i2c_eeprom_byte_write) refers to i2c_eeprom.o(i.i2c_eeprom_page_write) for i2c_eeprom_page_write
    i2c_eeprom.o(i.i2c_eeprom_common_write) refers to i2c.o(i.i2cStart) for i2cStart
    i2c_eeprom.o(i.i2c_eeprom_common_write) refers to i2c_eeprom.o(.bss) for i2c_eeprom_data
    i2c_eeprom.o(i.i2c_eeprom_common_write) refers to i2c_eeprom.o(.data) for ADDRESS_SIZE
    i2c_eeprom.o(i.i2c_eeprom_current_read) refers to i2c_eeprom.o(i.i2c_eeprom_sequential_read) for i2c_eeprom_sequential_read
    i2c_eeprom.o(i.i2c_eeprom_page_write) refers to i2c_eeprom.o(i.i2c_eeprom_common_write) for i2c_eeprom_common_write
    i2c_eeprom.o(i.i2c_eeprom_random_read) refers to i2c_eeprom.o(i.i2c_eeprom_common_write) for i2c_eeprom_common_write
    i2c_eeprom.o(i.i2c_eeprom_sequential_read) refers to i2c.o(i.i2cStart) for i2cStart
    i2c_eeprom.o(i.i2c_eeprom_sequential_read) refers to i2c_eeprom.o(.bss) for i2c_eeprom_data
    i2c_eeprom.o(i.i2c_eeprom_write_address) refers to i2c_eeprom.o(i.i2c_eeprom_common_write) for i2c_eeprom_common_write
    i2c_tmp102.o(i.tmp102_oneShot) refers to i2c_eeprom.o(i.i2c_eeprom_random_read) for i2c_eeprom_random_read
    i2c_tmp102.o(i.tmp102_oneShot) refers to i2c_eeprom.o(i.i2c_eeprom_byte_write) for i2c_eeprom_byte_write
==============================================================================

Removing Unused input sections from the image.

    Removing i2c.o(.rev16_text), (4 bytes).
    Removing i2c.o(.revsh_text), (4 bytes).
    Removing i2c.o(i.i2cStop), (68 bytes).
    Removing i2c_eeprom.o(.rev16_text), (4 bytes).
    Removing i2c_eeprom.o(.revsh_text), (4 bytes).
    Removing i2c_eeprom.o(i.i2c_eeprom_ack_polling), (28 bytes).
    Removing i2c_eeprom.o(i.i2c_eeprom_current_read), (28 bytes).
    Removing i2c_eeprom.o(i.i2c_eeprom_sequential_read), (56 bytes).
    Removing i2c_eeprom.o(i.i2c_eeprom_write_address), (28 bytes).
    Removing i2c_tmp102.o(.rev16_text), (4 bytes).
    Removing i2c_tmp102.o(.revsh_text), (4 bytes).
    Removing i2c_tmp102.o(i.tmp102_readTempF), (72 bytes).
    Removing i2c_tmp102.o(i.tmp102_setConversionRate), (68 bytes).
    Removing i2c_tmp102.o(i.tmp102_wakeup), (48 bytes).
    Removing i2c_oled.o(.rev16_text), (4 bytes).
    Removing i2c_oled.o(.revsh_text), (4 bytes).
    Removing i2c_oled.o(i.oled_drawBitmap), (114 bytes).
    Removing i2c_oled.o(i.oled_fillScr), (20 bytes).
==============================================================================

Image Symbol Table

    Local Symbols

    Symbol Name                              Value     Ov Type        Size  Object(Section)

    RESET                                    0x00000000   Section      192  startup_lpc11xx.o(RESET)
    ../clib/angel/boardlib.s                 0x00000000   Number         0  boardshut.o ABSOLUTE
    ../clib/angel/boardlib.s                 0x00000000   Number         0  boardinit3.o ABSOLUTE
    ../clib/angel/boardlib.s                 0x00000000   Number         0  boardinit2.o ABSOLUTE
    ../clib/angel/boardlib.s                 0x00000000   Number         0  boardinit1.o ABSOLUTE
    ../clib/angel/handlers.s                 0x00000000   Number         0  __scatter_zi.o ABSOLUTE
    ../clib/angel/handlers.s                 0x00000000   Number         0  __scatter_copy.o ABSOLUTE
    ../clib/angel/kernel.s                   0x00000000   Number         0  rtexit2.o ABSOLUTE
    ../clib/angel/kernel.s                   0x00000000   Number         0  __rtentry4.o ABSOLUTE
    ../clib/angel/kernel.s                   0x00000000   Number         0  __rtentry2.o ABSOLUTE
    ../clib/angel/kernel.s                   0x00000000   Number         0  __rtentry.o ABSOLUTE
    ../clib/angel/kernel.s                   0x00000000   Number         0  rtexit.o ABSOLUTE
    ../clib/angel/rt.s                       0x00000000   Number         0  aeabi_idiv0_sigfpe.o ABSOLUTE
    ../clib/angel/rt.s                       0x00000000   Number         0  rt_locale_intlibspace.o ABSOLUTE
    ../clib/angel/rt.s                       0x00000000   Number         0  rt_locale.o ABSOLUTE
    ../clib/angel/rt.s                       0x00000000   Number         0  rt_div0.o ABSOLUTE
    ../clib/angel/rt.s                       0x00000000   Number         0  aeabi_idiv0.o ABSOLUTE
    ../clib/angel/rt.s                       0x00000000   Number         0  rt_raise.o ABSOLUTE
    ../clib/angel/scatterp.s                 0x00000000   Number         0  __scatter.o ABSOLUTE
    ../clib/angel/startup.s                  0x00000000   Number         0  __main.o ABSOLUTE
    ../clib/angel/sys.s                      0x00000000   Number         0  libspace.o ABSOLUTE
    ../clib/angel/sys.s                      0x00000000   Number         0  use_no_semi.o ABSOLUTE
    ../clib/angel/sys.s                      0x00000000   Number         0  tempstk.o ABSOLUTE
    ../clib/angel/sys.s                      0x00000000   Number         0  sys_stackheap_outer.o ABSOLUTE
    ../clib/angel/sys.s                      0x00000000   Number         0  indicate_semi.o ABSOLUTE
    ../clib/angel/sysapp.c                   0x00000000   Number         0  sys_command.o ABSOLUTE
    ../clib/armsys.c                         0x00000000   Number         0  _get_argv_nomalloc.o ABSOLUTE
    ../clib/armsys.c                         0x00000000   Number         0  no_argv.o ABSOLUTE
    ../clib/armsys.c                         0x00000000   Number         0  argv_veneer.o ABSOLUTE
    ../clib/bigflt.c                         0x00000000   Number         0  bigflt0.o ABSOLUTE
    ../clib/btod.c                           0x00000000   Number         0  btod.o ABSOLUTE
    ../clib/division.c                       0x00000000   Number         0  lludiv10.o ABSOLUTE
    ../clib/division.c                       0x00000000   Number         0  rtudiv10.o ABSOLUTE
    ../clib/division.s                       0x00000000   Number         0  aeabi_sdiv.o ABSOLUTE
    ../clib/division.s                       0x00000000   Number         0  aeabi_sdiv_div0.o ABSOLUTE
    ../clib/heapalloc.c                      0x00000000   Number         0  hrguard.o ABSOLUTE
    ../clib/heapaux.c                        0x00000000   Number         0  heapauxi.o ABSOLUTE
    ../clib/libinit.s                        0x00000000   Number         0  libshutdown.o ABSOLUTE
    ../clib/libinit.s                        0x00000000   Number         0  libshutdown2.o ABSOLUTE
    ../clib/libinit.s                        0x00000000   Number         0  libinit.o ABSOLUTE
    ../clib/libinit.s                        0x00000000   Number         0  libinit2.o ABSOLUTE
    ../clib/locale.s                         0x00000000   Number         0  lc_numeric_c.o ABSOLUTE
    ../clib/memcpset.c                       0x00000000   Number         0  rt_memcpy.o ABSOLUTE
    ../clib/memcpset.c                       0x00000000   Number         0  aeabi_memset.o ABSOLUTE
    ../clib/memcpset.c                       0x00000000   Number         0  rt_memclr.o ABSOLUTE
    ../clib/memcpset.c                       0x00000000   Number         0  rt_memcpy.o ABSOLUTE
    ../clib/misc.s                           0x00000000   Number         0  printf_stubs.o ABSOLUTE
    ../clib/printf.c                         0x00000000   Number         0  __printf_flags.o ABSOLUTE
    ../clib/printf.c                         0x00000000   Number         0  __printf_ss.o ABSOLUTE
    ../clib/printf.c                         0x00000000   Number         0  _printf_fp_dec.o ABSOLUTE
    ../clib/printf.c                         0x00000000   Number         0  noretval__2printf.o ABSOLUTE
    ../clib/printf.c                         0x00000000   Number         0  __2printf.o ABSOLUTE
    ../clib/printf.c                         0x00000000   Number         0  __printf_wp.o ABSOLUTE
    ../clib/printf.c                         0x00000000   Number         0  __printf_nopercent.o ABSOLUTE
    ../clib/printf.c                         0x00000000   Number         0  _printf_char_file.o ABSOLUTE
    ../clib/printf.c                         0x00000000   Number         0  __printf_flags_wp.o ABSOLUTE
    ../clib/printf.c                         0x00000000   Number         0  __printf_ss_wp.o ABSOLUTE
    ../clib/printf.c                         0x00000000   Number         0  __printf_flags_ss.o ABSOLUTE
    ../clib/printf.c                         0x00000000   Number         0  __printf.o ABSOLUTE
    ../clib/printf.c                         0x00000000   Number         0  _printf_fp_infnan.o ABSOLUTE
    ../clib/printf.c                         0x00000000   Number         0  _printf_char_common.o ABSOLUTE
    ../clib/printf.c                         0x00000000   Number         0  __printf_flags_ss_wp.o ABSOLUTE
    ../clib/printf_percent.s                 0x00000000   Number         0  _printf_percent.o ABSOLUTE
    ../clib/printf_percent.s                 0x00000000   Number         0  _printf_percent_end.o ABSOLUTE
    ../clib/printf_percent.s                 0x00000000   Number         0  _printf_f.o ABSOLUTE
    ../clib/signal.c                         0x00000000   Number         0  defsig_exit.o ABSOLUTE
    ../clib/signal.c                         0x00000000   Number         0  defsig_fpe_formal.o ABSOLUTE
    ../clib/signal.c                         0x00000000   Number         0  defsig_fpe_outer.o ABSOLUTE
    ../clib/signal.c                         0x00000000   Number         0  defsig_segv_inner.o ABSOLUTE
    ../clib/signal.c                         0x00000000   Number         0  defsig_other.o ABSOLUTE
    ../clib/signal.c                         0x00000000   Number         0  defsig_cppl_inner.o ABSOLUTE
    ../clib/signal.c                         0x00000000   Number         0  defsig_pvfn_inner.o ABSOLUTE
    ../clib/signal.c                         0x00000000   Number         0  defsig_stak_inner.o ABSOLUTE
    ../clib/signal.c                         0x00000000   Number         0  defsig_rtmem_inner.o ABSOLUTE
    ../clib/signal.c                         0x00000000   Number         0  defsig_rtred_inner.o ABSOLUTE
    ../clib/signal.c                         0x00000000   Number         0  defsig_abrt_inner.o ABSOLUTE
    ../clib/signal.c                         0x00000000   Number         0  defsig_rtmem_formal.o ABSOLUTE
    ../clib/signal.c                         0x00000000   Number         0  defsig_rtmem_outer.o ABSOLUTE
    ../clib/signal.c                         0x00000000   Number         0  defsig_general.o ABSOLUTE
    ../clib/signal.c                         0x00000000   Number         0  __raise.o ABSOLUTE
    ../clib/signal.c                         0x00000000   Number         0  defsig_fpe_inner.o ABSOLUTE
    ../clib/signal.s                         0x00000000   Number         0  defsig.o ABSOLUTE
    ../clib/stdlib.c                         0x00000000   Number         0  exit.o ABSOLUTE
    ../clib/string.c                         0x00000000   Number         0  strlen.o ABSOLUTE
    ../clib/string.c                         0x00000000   Number         0  strcmp.o ABSOLUTE
    ../fplib/cfplib/cmpret.c                 0x00000000   Number         0  cmpret.o ABSOLUTE
    ../fplib/cfplib/d2f.c                    0x00000000   Number         0  d2f.o ABSOLUTE
    ../fplib/cfplib/daddsub.c                0x00000000   Number         0  daddsub.o ABSOLUTE
    ../fplib/cfplib/dcmpin.c                 0x00000000   Number         0  dcmpin.o ABSOLUTE
    ../fplib/cfplib/ddiv.c                   0x00000000   Number         0  ddiv.o ABSOLUTE
    ../fplib/cfplib/dmul.c                   0x00000000   Number         0  dmul.o ABSOLUTE
    ../fplib/cfplib/f2d.c                    0x00000000   Number         0  f2d.o ABSOLUTE
    ../fplib/cfplib/ffix.c                   0x00000000   Number         0  ffixi.o ABSOLUTE
    ../fplib/cfplib/fflt.c                   0x00000000   Number         0  dflti.o ABSOLUTE
    ../fplib/cfplib/fflt.c                   0x00000000   Number         0  fflti.o ABSOLUTE
    ../fplib/cfplib/fpinit.c                 0x00000000   Number         0  fpinit.o ABSOLUTE
    ../fplib/cfplib/ieee_status.c            0x00000000   Number         0  ieee_status.o ABSOLUTE
    ../fplib/cfplib/nan2.c                   0x00000000   Number         0  dnan2.o ABSOLUTE
    ../fplib/cfplib/retnan.c                 0x00000000   Number         0  retnan.o ABSOLUTE
    ../fplib/dleqf6m.s                       0x00000000   Number         0  dlef.o ABSOLUTE
    ../fplib/faddsub6m.s                     0x00000000   Number         0  faddsub.o ABSOLUTE
    ../fplib/fmul6m.s                        0x00000000   Number         0  fmul.o ABSOLUTE
    ../fplib/printf1.s                       0x00000000   Number         0  printf1.o ABSOLUTE
    ../fplib/usenofp.s                       0x00000000   Number         0  usenofp.o ABSOLUTE
    ../mathlib/fpclassify.c                  0x00000000   Number         0  fpclassify.o ABSOLUTE
    RTE\Device\LPC1114FN28_102\startup_LPC11xx.s 0x00000000   Number         0  startup_lpc11xx.o ABSOLUTE
    RTE\Device\LPC1114FN28_102\system_LPC11xx.c 0x00000000   Number         0  system_lpc11xx.o ABSOLUTE
    RTE\\Device\\LPC1114FN28_102\\system_LPC11xx.c 0x00000000   Number         0  system_lpc11xx.o ABSOLUTE
    dc.s                                     0x00000000   Number         0  dc.o ABSOLUTE
    driver\\i2c.c                            0x00000000   Number         0  i2c.o ABSOLUTE
    driver\\i2c_eeprom.c                     0x00000000   Number         0  i2c_eeprom.o ABSOLUTE
    driver\\i2c_oled.c                       0x00000000   Number         0  i2c_oled.o ABSOLUTE
    driver\\i2c_tmp102.c                     0x00000000   Number         0  i2c_tmp102.o ABSOLUTE
    driver\\led.c                            0x00000000   Number         0  led.o ABSOLUTE
    driver\\uart.c                           0x00000000   Number         0  uart.o ABSOLUTE
    driver\ftoa.c                            0x00000000   Number         0  ftoa.o ABSOLUTE
    driver\i2c.c                             0x00000000   Number         0  i2c.o ABSOLUTE
    driver\i2c_eeprom.c                      0x00000000   Number         0  i2c_eeprom.o ABSOLUTE
    driver\i2c_oled.c                        0x00000000   Number         0  i2c_oled.o ABSOLUTE
    driver\i2c_tmp102.c                      0x00000000   Number         0  i2c_tmp102.o ABSOLUTE
    driver\led.c                             0x00000000   Number         0  led.o ABSOLUTE
    driver\oled_font.c                       0x00000000   Number         0  oled_font.o ABSOLUTE
    driver\retarget.c                        0x00000000   Number         0  retarget.o ABSOLUTE
    driver\uart.c                            0x00000000   Number         0  uart.o ABSOLUTE
    interrupt_handler_utility.c              0x00000000   Number         0  interrupt_handler_utility.o ABSOLUTE
    interrupt_handler_utility.c              0x00000000   Number         0  interrupt_handler_utility.o ABSOLUTE
    main.c                                   0x00000000   Number         0  main.o ABSOLUTE
    main.c                                   0x00000000   Number         0  main.o ABSOLUTE
    !!!main                                  0x000000c0   Section        8  __main.o(!!!main)
    !!!scatter                               0x000000c8   Section       60  __scatter.o(!!!scatter)
    !!handler_copy                           0x00000104   Section       26  __scatter_copy.o(!!handler_copy)
    !!handler_zi                             0x00000120   Section       28  __scatter_zi.o(!!handler_zi)
    .ARM.Collect$$_printf_percent$$00000000  0x0000013c   Section        2  _printf_percent.o(.ARM.Collect$$_printf_percent$$00000000)
    .ARM.Collect$$_printf_percent$$00000003  0x0000013e   Section       10  _printf_f.o(.ARM.Collect$$_printf_percent$$00000003)
    .ARM.Collect$$_printf_percent$$00000017  0x00000148   Section        4  _printf_percent_end.o(.ARM.Collect$$_printf_percent$$00000017)
    .ARM.Collect$$libinit$$00000000          0x0000014c   Section        2  libinit.o(.ARM.Collect$$libinit$$00000000)
    .ARM.Collect$$libinit$$00000002          0x0000014e   Section        0  libinit2.o(.ARM.Collect$$libinit$$00000002)
    .ARM.Collect$$libinit$$00000004          0x0000014e   Section        0  libinit2.o(.ARM.Collect$$libinit$$00000004)
    .ARM.Collect$$libinit$$0000000A          0x0000014e   Section        0  libinit2.o(.ARM.Collect$$libinit$$0000000A)
    .ARM.Collect$$libinit$$0000000C          0x0000014e   Section        0  libinit2.o(.ARM.Collect$$libinit$$0000000C)
    .ARM.Collect$$libinit$$0000000E          0x0000014e   Section        0  libinit2.o(.ARM.Collect$$libinit$$0000000E)
    .ARM.Collect$$libinit$$0000000F          0x0000014e   Section        6  libinit2.o(.ARM.Collect$$libinit$$0000000F)
    .ARM.Collect$$libinit$$00000011          0x00000154   Section        0  libinit2.o(.ARM.Collect$$libinit$$00000011)
    .ARM.Collect$$libinit$$00000013          0x00000154   Section        0  libinit2.o(.ARM.Collect$$libinit$$00000013)
    .ARM.Collect$$libinit$$00000015          0x00000154   Section        0  libinit2.o(.ARM.Collect$$libinit$$00000015)
    .ARM.Collect$$libinit$$00000016          0x00000154   Section       10  libinit2.o(.ARM.Collect$$libinit$$00000016)
    .ARM.Collect$$libinit$$00000017          0x0000015e   Section        0  libinit2.o(.ARM.Collect$$libinit$$00000017)
    .ARM.Collect$$libinit$$00000019          0x0000015e   Section        0  libinit2.o(.ARM.Collect$$libinit$$00000019)
    .ARM.Collect$$libinit$$0000001B          0x0000015e   Section        0  libinit2.o(.ARM.Collect$$libinit$$0000001B)
    .ARM.Collect$$libinit$$0000001D          0x0000015e   Section        0  libinit2.o(.ARM.Collect$$libinit$$0000001D)
    .ARM.Collect$$libinit$$0000001F          0x0000015e   Section        0  libinit2.o(.ARM.Collect$$libinit$$0000001F)
    .ARM.Collect$$libinit$$00000021          0x0000015e   Section        0  libinit2.o(.ARM.Collect$$libinit$$00000021)
    .ARM.Collect$$libinit$$00000023          0x0000015e   Section        0  libinit2.o(.ARM.Collect$$libinit$$00000023)
    .ARM.Collect$$libinit$$00000025          0x0000015e   Section        0  libinit2.o(.ARM.Collect$$libinit$$00000025)
    .ARM.Collect$$libinit$$0000002C          0x0000015e   Section        0  libinit2.o(.ARM.Collect$$libinit$$0000002C)
    .ARM.Collect$$libinit$$0000002E          0x0000015e   Section        0  libinit2.o(.ARM.Collect$$libinit$$0000002E)
    .ARM.Collect$$libinit$$00000030          0x0000015e   Section        0  libinit2.o(.ARM.Collect$$libinit$$00000030)
    .ARM.Collect$$libinit$$00000032          0x0000015e   Section        0  libinit2.o(.ARM.Collect$$libinit$$00000032)
    .ARM.Collect$$libinit$$00000033          0x0000015e   Section        2  libinit2.o(.ARM.Collect$$libinit$$00000033)
    .ARM.Collect$$libshutdown$$00000000      0x00000160   Section        2  libshutdown.o(.ARM.Collect$$libshutdown$$00000000)
    .ARM.Collect$$libshutdown$$00000002      0x00000162   Section        0  libshutdown2.o(.ARM.Collect$$libshutdown$$00000002)
    .ARM.Collect$$libshutdown$$00000004      0x00000162   Section        0  libshutdown2.o(.ARM.Collect$$libshutdown$$00000004)
    .ARM.Collect$$libshutdown$$00000007      0x00000162   Section        0  libshutdown2.o(.ARM.Collect$$libshutdown$$00000007)
    .ARM.Collect$$libshutdown$$0000000A      0x00000162   Section        0  libshutdown2.o(.ARM.Collect$$libshutdown$$0000000A)
    .ARM.Collect$$libshutdown$$0000000C      0x00000162   Section        0  libshutdown2.o(.ARM.Collect$$libshutdown$$0000000C)
    .ARM.Collect$$libshutdown$$0000000F      0x00000162   Section        0  libshutdown2.o(.ARM.Collect$$libshutdown$$0000000F)
    .ARM.Collect$$libshutdown$$00000010      0x00000162   Section        2  libshutdown2.o(.ARM.Collect$$libshutdown$$00000010)
    .ARM.Collect$$rtentry$$00000000          0x00000164   Section        0  __rtentry.o(.ARM.Collect$$rtentry$$00000000)
    .ARM.Collect$$rtentry$$00000002          0x00000164   Section        0  __rtentry2.o(.ARM.Collect$$rtentry$$00000002)
    .ARM.Collect$$rtentry$$00000004          0x00000164   Section        6  __rtentry4.o(.ARM.Collect$$rtentry$$00000004)
    .ARM.Collect$$rtentry$$00000009          0x0000016a   Section        0  __rtentry2.o(.ARM.Collect$$rtentry$$00000009)
    .ARM.Collect$$rtentry$$0000000A          0x0000016a   Section        4  __rtentry2.o(.ARM.Collect$$rtentry$$0000000A)
    .ARM.Collect$$rtentry$$0000000C          0x0000016e   Section        0  __rtentry2.o(.ARM.Collect$$rtentry$$0000000C)
    .ARM.Collect$$rtentry$$0000000D          0x0000016e   Section        8  __rtentry2.o(.ARM.Collect$$rtentry$$0000000D)
    .ARM.Collect$$rtexit$$00000000           0x00000176   Section        2  rtexit.o(.ARM.Collect$$rtexit$$00000000)
    .ARM.Collect$$rtexit$$00000002           0x00000178   Section        0  rtexit2.o(.ARM.Collect$$rtexit$$00000002)
    .ARM.Collect$$rtexit$$00000003           0x00000178   Section        4  rtexit2.o(.ARM.Collect$$rtexit$$00000003)
    .ARM.Collect$$rtexit$$00000004           0x0000017c   Section        6  rtexit2.o(.ARM.Collect$$rtexit$$00000004)
    .emb_text                                0x00000184   Section       56  rt_memcpy.o(.emb_text)
    .text                                    0x000001bc   Section       52  startup_lpc11xx.o(.text)
    .text                                    0x000001f0   Section        2  use_no_semi.o(.text)
    .text                                    0x000001f4   Section        0  noretval__2printf.o(.text)
    .text                                    0x00000210   Section        0  strlen.o(.text)
    .text                                    0x00000254   Section        0  rt_memclr.o(.text)
    .text                                    0x00000294   Section        0  heapauxi.o(.text)
    .text                                    0x0000029a   Section        0  dflti.o(.text)
    .text                                    0x000002f4   Section        8  rt_locale_intlibspace.o(.text)
    .ARM.__at_0x02FC                         0x000002fc   Section        4  startup_lpc11xx.o(.ARM.__at_0x02FC)
    .text                                    0x00000300   Section        0  __printf_wp.o(.text)
    .text                                    0x0000040e   Section      346  aeabi_sdiv.o(.text)
    .text                                    0x00000568   Section        0  d2f.o(.text)
    .text                                    0x000005e4   Section        0  dmul.o(.text)
    .text                                    0x0000082c   Section        0  f2d.o(.text)
    .text                                    0x00000880   Section        0  ffixi.o(.text)
    .text                                    0x000008cc   Section        0  fflti.o(.text)
    .text                                    0x0000092c   Section        0  _printf_fp_dec.o(.text)
    _fp_digits                               0x0000092f   Thumb Code   412  _printf_fp_dec.o(.text)
    .text                                    0x00000d44   Section        0  _printf_char_file.o(.text)
    .text                                    0x00000d6c   Section        0  dcmpin.o(.text)
    .text                                    0x00000dfc   Section        0  lludiv10.o(.text)
    .text                                    0x00000e78   Section        0  _printf_char_common.o(.text)
    _printf_input_char                       0x00000e79   Thumb Code    10  _printf_char_common.o(.text)
    .text                                    0x00000ea8   Section        0  _printf_fp_infnan.o(.text)
    .text                                    0x00000f30   Section        0  bigflt0.o(.text)
    .text                                    0x00001008   Section        0  btod.o(.text)
    btod_internal_mul                        0x00001049   Thumb Code   492  btod.o(.text)
    btod_internal_div                        0x00001235   Thumb Code   520  btod.o(.text)
    .text                                    0x00001588   Section        0  rtudiv10.o(.text)
    .text                                    0x000015b0   Section        0  cmpret.o(.text)
    .text                                    0x000015e0   Section        0  dnan2.o(.text)
    .text                                    0x000015f4   Section        8  libspace.o(.text)
    .text                                    0x000015fc   Section       62  sys_stackheap_outer.o(.text)
    .text                                    0x0000163a   Section        0  exit.o(.text)
    .text                                    0x0000164c   Section        0  strcmp.o(.text)
    .text                                    0x000016d4   Section        0  retnan.o(.text)
    i.I2C_IRQHandler                         0x00001734   Section        0  i2c.o(i.I2C_IRQHandler)
    i.LedOff                                 0x000019e8   Section        0  led.o(i.LedOff)
    i.LedOn                                  0x000019f4   Section        0  led.o(i.LedOn)
    i.LedOutputCfg                           0x00001a00   Section        0  led.o(i.LedOutputCfg)
    i.SysTick_Handler                        0x00001a3c   Section        0  interrupt_handler_utility.o(i.SysTick_Handler)
    i.SystemInit                             0x00001a4c   Section        0  system_lpc11xx.o(i.SystemInit)
    i.UartConfig                             0x00001ac0   Section        0  uart.o(i.UartConfig)
    i.UartPutc                               0x00001b10   Section        0  uart.o(i.UartPutc)
    i.__ARM_common_ll_muluu                  0x00001b58   Section        0  btod.o(i.__ARM_common_ll_muluu)
    i.__ARM_common_switch8                   0x00001b88   Section        0  i2c.o(i.__ARM_common_switch8)
    i.__ARM_fpclassify                       0x00001ba4   Section        0  fpclassify.o(i.__ARM_fpclassify)
    i.__NVIC_SetPriority                     0x00001bd0   Section        0  i2c.o(i.__NVIC_SetPriority)
    __NVIC_SetPriority                       0x00001bd1   Thumb Code   110  i2c.o(i.__NVIC_SetPriority)
    i.__NVIC_SetPriority                     0x00001c48   Section        0  main.o(i.__NVIC_SetPriority)
    __NVIC_SetPriority                       0x00001c49   Thumb Code   110  main.o(i.__NVIC_SetPriority)
    i._is_digit                              0x00001cc0   Section        0  __printf_wp.o(i._is_digit)
    i._sys_exit                              0x00001cce   Section        0  retarget.o(i._sys_exit)
    i.comm_out                               0x00001cd2   Section        0  i2c_oled.o(i.comm_out)
    i.comm_page_out                          0x00001ce2   Section        0  i2c_oled.o(i.comm_page_out)
    i.data_out                               0x00001cf6   Section        0  i2c_oled.o(i.data_out)
    i.data_page_out                          0x00001d06   Section        0  i2c_oled.o(i.data_page_out)
    i.delay_ms                               0x00001d1c   Section        0  interrupt_handler_utility.o(i.delay_ms)
    i.ferror                                 0x00001d34   Section        0  retarget.o(i.ferror)
    i.fputc                                  0x00001d3c   Section        0  retarget.o(i.fputc)
    i.ftoa                                   0x00001d4c   Section        0  ftoa.o(i.ftoa)
    i.i2cConfig                              0x00001db4   Section        0  i2c.o(i.i2cConfig)
    i.i2cConfig_Init                         0x00001dc0   Section        0  i2c.o(i.i2cConfig_Init)
    i.i2cStart                               0x00001e5c   Section        0  i2c.o(i.i2cStart)
    i.i2c_eeprom_byte_write                  0x00001e74   Section        0  i2c_eeprom.o(i.i2c_eeprom_byte_write)
    i.i2c_eeprom_common_write                0x00001e90   Section        0  i2c_eeprom.o(i.i2c_eeprom_common_write)
    i.i2c_eeprom_page_write                  0x00001f1c   Section        0  i2c_eeprom.o(i.i2c_eeprom_page_write)
    i.i2c_eeprom_random_read                 0x00001f48   Section        0  i2c_eeprom.o(i.i2c_eeprom_random_read)
    i.init_oled                              0x00001f6c   Section        0  i2c_oled.o(i.init_oled)
    i.intToStr                               0x00001fdc   Section        0  ftoa.o(i.intToStr)
    i.main                                   0x00002024   Section        0  main.o(i.main)
    i.oled_clrPixel                          0x00002168   Section        0  i2c_oled.o(i.oled_clrPixel)
    i.oled_clrScr                            0x000021a4   Section        0  i2c_oled.o(i.oled_clrScr)
    i.oled_print                             0x000021b8   Section        0  i2c_oled.o(i.oled_print)
    i.oled_printNumF                         0x00002214   Section        0  i2c_oled.o(i.oled_printNumF)
    i.oled_print_char                        0x000022b8   Section        0  i2c_oled.o(i.oled_print_char)
    i.oled_setFont                           0x000023f8   Section        0  i2c_oled.o(i.oled_setFont)
    i.oled_setPixel                          0x00002414   Section        0  i2c_oled.o(i.oled_setPixel)
    i.oled_update                            0x00002450   Section        0  i2c_oled.o(i.oled_update)
    i.pixel_on                               0x00002458   Section        0  i2c_oled.o(i.pixel_on)
    i.reverse                                0x000024b8   Section        0  ftoa.o(i.reverse)
    i.tmp102_oneShot                         0x000024d4   Section        0  i2c_tmp102.o(i.tmp102_oneShot)
    i.tmp102_readTempC                       0x0000252c   Section        0  i2c_tmp102.o(i.tmp102_readTempC)
    i.tmp102_setExtendedMode                 0x000025a4   Section        0  i2c_tmp102.o(i.tmp102_setExtendedMode)
    i.tmp102_sleep                           0x000025e4   Section        0  i2c_tmp102.o(i.tmp102_sleep)
    locale$$code                             0x00002614   Section       44  lc_numeric_c.o(locale$$code)
    x$fpl$dleqf                              0x00002640   Section      100  dlef.o(x$fpl$dleqf)
    x$fpl$fadd                               0x000026a4   Section      140  faddsub.o(x$fpl$fadd)
    _fadd1                                   0x000026b1   Thumb Code     0  faddsub.o(x$fpl$fadd)
    x$fpl$fmul                               0x00002730   Section      176  fmul.o(x$fpl$fmul)
    x$fpl$frsb                               0x000027e0   Section       24  faddsub.o(x$fpl$frsb)
    x$fpl$fsub                               0x000027f8   Section      208  faddsub.o(x$fpl$fsub)
    _fsub1                                   0x00002805   Thumb Code     0  faddsub.o(x$fpl$fsub)
    x$fpl$printf1                            0x000028c8   Section       16  printf1.o(x$fpl$printf1)
    .constdata                               0x000028d8   Section     1440  oled_font.o(.constdata)
    x$fpl$usenofp                            0x000028d8   Section        0  usenofp.o(x$fpl$usenofp)
    .constdata                               0x00002e78   Section      148  bigflt0.o(.constdata)
    tenpwrs_x                                0x00002e78   Data          60  bigflt0.o(.constdata)
    tenpwrs_i                                0x00002eb4   Data          64  bigflt0.o(.constdata)
    locale$$data                             0x00002f2c   Section       28  lc_numeric_c.o(locale$$data)
    __lcnum_c_name                           0x00002f30   Data           2  lc_numeric_c.o(locale$$data)
    __lcnum_c_start                          0x00002f38   Data           0  lc_numeric_c.o(locale$$data)
    __lcnum_c_point                          0x00002f44   Data           0  lc_numeric_c.o(locale$$data)
    __lcnum_c_thousands                      0x00002f46   Data           0  lc_numeric_c.o(locale$$data)
    __lcnum_c_grouping                       0x00002f47   Data           0  lc_numeric_c.o(locale$$data)
    __lcnum_c_end                            0x00002f48   Data           0  lc_numeric_c.o(locale$$data)
    .data                                    0x10000000   Section        4  i2c.o(.data)
    .data                                    0x10000004   Section        4  i2c_eeprom.o(.data)
    .data                                    0x10000008   Section        8  retarget.o(.data)
    .data                                    0x10000010   Section        4  interrupt_handler_utility.o(.data)
    .bss                                     0x10000014   Section       32  i2c_eeprom.o(.bss)
    .bss                                     0x10000034   Section      372  i2c_oled.o(.bss)
    .bss                                     0x100001a8   Section       96  libspace.o(.bss)
    HEAP                                     0x10000208   Section        0  startup_lpc11xx.o(HEAP)
    STACK                                    0x10000208   Section      512  startup_lpc11xx.o(STACK)
    Heap_Mem                                 0x10000208   Data           0  startup_lpc11xx.o(HEAP)
    Stack_Mem                                0x10000208   Data         512  startup_lpc11xx.o(STACK)
    __initial_sp                             0x10000408   Data           0  startup_lpc11xx.o(STACK)

    Global Symbols

    Symbol Name                              Value     Ov Type        Size  Object(Section)

    BuildAttributes$$THM_ISAv3M$S$PE$A:L22$X:L11$S22$IEEE1$IW$USESV6$~STKCKD$USESV7$~SHL$OTIME$ROPI$IEEEJ$EBA8$UX$STANDARDLIB$REQ8$PRES8$EABIv2 0x00000000   Number         0  anon$$obj.o ABSOLUTE
    __ARM_use_no_argv                        0x00000000   Number         0  main.o ABSOLUTE
    __Vectors                                0x00000000   Data           4  startup_lpc11xx.o(RESET)
    _printf_flags                            0x00000000   Number         0  printf_stubs.o ABSOLUTE
    _printf_return_value                     0x00000000   Number         0  printf_stubs.o ABSOLUTE
    _printf_sizespec                         0x00000000   Number         0  printf_stubs.o ABSOLUTE
    _printf_widthprec                        0x00000000   Number         0  printf_stubs.o ABSOLUTE
    __ARM_exceptions_init                     - Undefined Weak Reference
    __alloca_initialize                       - Undefined Weak Reference
    __arm_preinit_                            - Undefined Weak Reference
    __cpp_initialize__aeabi_                  - Undefined Weak Reference
    __cxa_finalize                            - Undefined Weak Reference
    __sigvec_lookup                           - Undefined Weak Reference
    _atexit_init                              - Undefined Weak Reference
    _call_atexit_fns                          - Undefined Weak Reference
    _clock_init                               - Undefined Weak Reference
    _fp_trap_init                             - Undefined Weak Reference
    _fp_trap_shutdown                         - Undefined Weak Reference
    _get_lc_collate                           - Undefined Weak Reference
    _get_lc_ctype                             - Undefined Weak Reference
    _get_lc_monetary                          - Undefined Weak Reference
    _get_lc_time                              - Undefined Weak Reference
    _getenv_init                              - Undefined Weak Reference
    _handle_redirection                       - Undefined Weak Reference
    _init_alloc                               - Undefined Weak Reference
    _init_user_alloc                          - Undefined Weak Reference
    _initio                                   - Undefined Weak Reference
    _printf_post_padding                      - Undefined Weak Reference
    _printf_pre_padding                       - Undefined Weak Reference
    _rand_init                                - Undefined Weak Reference
    _signal_finish                            - Undefined Weak Reference
    _signal_init                              - Undefined Weak Reference
    _terminate_alloc                          - Undefined Weak Reference
    _terminate_user_alloc                     - Undefined Weak Reference
    _terminateio                              - Undefined Weak Reference
    __main                                   0x000000c1   Thumb Code     8  __main.o(!!!main)
    __scatterload                            0x000000c9   Thumb Code     0  __scatter.o(!!!scatter)
    __scatterload_rt2                        0x000000c9   Thumb Code    52  __scatter.o(!!!scatter)
    __scatterload_rt2_thumb_only             0x000000c9   Thumb Code     0  __scatter.o(!!!scatter)
    __scatterload_null                       0x000000d9   Thumb Code     0  __scatter.o(!!!scatter)
    __scatterload_copy                       0x00000105   Thumb Code    26  __scatter_copy.o(!!handler_copy)
    __scatterload_zeroinit                   0x00000121   Thumb Code    28  __scatter_zi.o(!!handler_zi)
    _printf_percent                          0x0000013d   Thumb Code     0  _printf_percent.o(.ARM.Collect$$_printf_percent$$00000000)
    _printf_f                                0x0000013f   Thumb Code     0  _printf_f.o(.ARM.Collect$$_printf_percent$$00000003)
    _printf_percent_end                      0x00000149   Thumb Code     0  _printf_percent_end.o(.ARM.Collect$$_printf_percent$$00000017)
    __rt_lib_init                            0x0000014d   Thumb Code     0  libinit.o(.ARM.Collect$$libinit$$00000000)
    __rt_lib_init_fp_1                       0x0000014f   Thumb Code     0  libinit2.o(.ARM.Collect$$libinit$$00000002)
    __rt_lib_init_heap_1                     0x0000014f   Thumb Code     0  libinit2.o(.ARM.Collect$$libinit$$0000000A)
    __rt_lib_init_lc_common                  0x0000014f   Thumb Code     0  libinit2.o(.ARM.Collect$$libinit$$0000000F)
    __rt_lib_init_preinit_1                  0x0000014f   Thumb Code     0  libinit2.o(.ARM.Collect$$libinit$$00000004)
    __rt_lib_init_rand_1                     0x0000014f   Thumb Code     0  libinit2.o(.ARM.Collect$$libinit$$0000000E)
    __rt_lib_init_user_alloc_1               0x0000014f   Thumb Code     0  libinit2.o(.ARM.Collect$$libinit$$0000000C)
    __rt_lib_init_lc_collate_1               0x00000155   Thumb Code     0  libinit2.o(.ARM.Collect$$libinit$$00000011)
    __rt_lib_init_lc_ctype_1                 0x00000155   Thumb Code     0  libinit2.o(.ARM.Collect$$libinit$$00000013)
    __rt_lib_init_lc_monetary_1              0x00000155   Thumb Code     0  libinit2.o(.ARM.Collect$$libinit$$00000015)
    __rt_lib_init_lc_numeric_2               0x00000155   Thumb Code     0  libinit2.o(.ARM.Collect$$libinit$$00000016)
    __rt_lib_init_alloca_1                   0x0000015f   Thumb Code     0  libinit2.o(.ARM.Collect$$libinit$$0000002E)
    __rt_lib_init_argv_1                     0x0000015f   Thumb Code     0  libinit2.o(.ARM.Collect$$libinit$$0000002C)
    __rt_lib_init_atexit_1                   0x0000015f   Thumb Code     0  libinit2.o(.ARM.Collect$$libinit$$0000001B)
    __rt_lib_init_clock_1                    0x0000015f   Thumb Code     0  libinit2.o(.ARM.Collect$$libinit$$00000021)
    __rt_lib_init_cpp_1                      0x0000015f   Thumb Code     0  libinit2.o(.ARM.Collect$$libinit$$00000032)
    __rt_lib_init_exceptions_1               0x0000015f   Thumb Code     0  libinit2.o(.ARM.Collect$$libinit$$00000030)
    __rt_lib_init_fp_trap_1                  0x0000015f   Thumb Code     0  libinit2.o(.ARM.Collect$$libinit$$0000001F)
    __rt_lib_init_getenv_1                   0x0000015f   Thumb Code     0  libinit2.o(.ARM.Collect$$libinit$$00000023)
    __rt_lib_init_lc_numeric_1               0x0000015f   Thumb Code     0  libinit2.o(.ARM.Collect$$libinit$$00000017)
    __rt_lib_init_lc_time_1                  0x0000015f   Thumb Code     0  libinit2.o(.ARM.Collect$$libinit$$00000019)
    __rt_lib_init_return                     0x0000015f   Thumb Code     0  libinit2.o(.ARM.Collect$$libinit$$00000033)
    __rt_lib_init_signal_1                   0x0000015f   Thumb Code     0  libinit2.o(.ARM.Collect$$libinit$$0000001D)
    __rt_lib_init_stdio_1                    0x0000015f   Thumb Code     0  libinit2.o(.ARM.Collect$$libinit$$00000025)
    __rt_lib_shutdown                        0x00000161   Thumb Code     0  libshutdown.o(.ARM.Collect$$libshutdown$$00000000)
    __rt_lib_shutdown_cpp_1                  0x00000163   Thumb Code     0  libshutdown2.o(.ARM.Collect$$libshutdown$$00000002)
    __rt_lib_shutdown_fp_trap_1              0x00000163   Thumb Code     0  libshutdown2.o(.ARM.Collect$$libshutdown$$00000007)
    __rt_lib_shutdown_heap_1                 0x00000163   Thumb Code     0  libshutdown2.o(.ARM.Collect$$libshutdown$$0000000F)
    __rt_lib_shutdown_return                 0x00000163   Thumb Code     0  libshutdown2.o(.ARM.Collect$$libshutdown$$00000010)
    __rt_lib_shutdown_signal_1               0x00000163   Thumb Code     0  libshutdown2.o(.ARM.Collect$$libshutdown$$0000000A)
    __rt_lib_shutdown_stdio_1                0x00000163   Thumb Code     0  libshutdown2.o(.ARM.Collect$$libshutdown$$00000004)
    __rt_lib_shutdown_user_alloc_1           0x00000163   Thumb Code     0  libshutdown2.o(.ARM.Collect$$libshutdown$$0000000C)
    __rt_entry                               0x00000165   Thumb Code     0  __rtentry.o(.ARM.Collect$$rtentry$$00000000)
    __rt_entry_presh_1                       0x00000165   Thumb Code     0  __rtentry2.o(.ARM.Collect$$rtentry$$00000002)
    __rt_entry_sh                            0x00000165   Thumb Code     0  __rtentry4.o(.ARM.Collect$$rtentry$$00000004)
    __rt_entry_li                            0x0000016b   Thumb Code     0  __rtentry2.o(.ARM.Collect$$rtentry$$0000000A)
    __rt_entry_postsh_1                      0x0000016b   Thumb Code     0  __rtentry2.o(.ARM.Collect$$rtentry$$00000009)
    __rt_entry_main                          0x0000016f   Thumb Code     0  __rtentry2.o(.ARM.Collect$$rtentry$$0000000D)
    __rt_entry_postli_1                      0x0000016f   Thumb Code     0  __rtentry2.o(.ARM.Collect$$rtentry$$0000000C)
    __rt_exit                                0x00000177   Thumb Code     0  rtexit.o(.ARM.Collect$$rtexit$$00000000)
    __rt_exit_ls                             0x00000179   Thumb Code     0  rtexit2.o(.ARM.Collect$$rtexit$$00000003)
    __rt_exit_prels_1                        0x00000179   Thumb Code     0  rtexit2.o(.ARM.Collect$$rtexit$$00000002)
    __rt_exit_exit                           0x0000017d   Thumb Code     0  rtexit2.o(.ARM.Collect$$rtexit$$00000004)
    __aeabi_memcpy4                          0x00000185   Thumb Code    56  rt_memcpy.o(.emb_text)
    __aeabi_memcpy8                          0x00000185   Thumb Code     0  rt_memcpy.o(.emb_text)
    Reset_Handler                            0x000001bd   Thumb Code     8  startup_lpc11xx.o(.text)
    NMI_Handler                              0x000001c5   Thumb Code     2  startup_lpc11xx.o(.text)
    HardFault_Handler                        0x000001c7   Thumb Code     2  startup_lpc11xx.o(.text)
    SVC_Handler                              0x000001c9   Thumb Code     2  startup_lpc11xx.o(.text)
    PendSV_Handler                           0x000001cb   Thumb Code     2  startup_lpc11xx.o(.text)
    ADC_IRQHandler                           0x000001cf   Thumb Code     0  startup_lpc11xx.o(.text)
    BOD_IRQHandler                           0x000001cf   Thumb Code     0  startup_lpc11xx.o(.text)
    CAN_IRQHandler                           0x000001cf   Thumb Code     0  startup_lpc11xx.o(.text)
    FMC_IRQHandler                           0x000001cf   Thumb Code     0  startup_lpc11xx.o(.text)
    PIOINT0_IRQHandler                       0x000001cf   Thumb Code     0  startup_lpc11xx.o(.text)
    PIOINT1_IRQHandler                       0x000001cf   Thumb Code     0  startup_lpc11xx.o(.text)
    PIOINT2_IRQHandler                       0x000001cf   Thumb Code     0  startup_lpc11xx.o(.text)
    PIOINT3_IRQHandler                       0x000001cf   Thumb Code     0  startup_lpc11xx.o(.text)
    SSP0_IRQHandler                          0x000001cf   Thumb Code     0  startup_lpc11xx.o(.text)
    SSP1_IRQHandler                          0x000001cf   Thumb Code     0  startup_lpc11xx.o(.text)
    TIMER16_0_IRQHandler                     0x000001cf   Thumb Code     0  startup_lpc11xx.o(.text)
    TIMER16_1_IRQHandler                     0x000001cf   Thumb Code     0  startup_lpc11xx.o(.text)
    TIMER32_0_IRQHandler                     0x000001cf   Thumb Code     0  startup_lpc11xx.o(.text)
    TIMER32_1_IRQHandler                     0x000001cf   Thumb Code     0  startup_lpc11xx.o(.text)
    UART_IRQHandler                          0x000001cf   Thumb Code     0  startup_lpc11xx.o(.text)
    USB_FIQHandler                           0x000001cf   Thumb Code     0  startup_lpc11xx.o(.text)
    USB_IRQHandler                           0x000001cf   Thumb Code     0  startup_lpc11xx.o(.text)
    WAKEUP_IRQHandler                        0x000001cf   Thumb Code     0  startup_lpc11xx.o(.text)
    WDT_IRQHandler                           0x000001cf   Thumb Code     0  startup_lpc11xx.o(.text)
    __user_initial_stackheap                 0x000001d1   Thumb Code     0  startup_lpc11xx.o(.text)
    __I$use$semihosting                      0x000001f1   Thumb Code     0  use_no_semi.o(.text)
    __use_no_semihosting_swi                 0x000001f1   Thumb Code     2  use_no_semi.o(.text)
    __2printf                                0x000001f5   Thumb Code    22  noretval__2printf.o(.text)
    strlen                                   0x00000211   Thumb Code    62  strlen.o(.text)
    _memset_w                                0x00000255   Thumb Code    26  rt_memclr.o(.text)
    _memset                                  0x0000026f   Thumb Code    30  rt_memclr.o(.text)
    __aeabi_memclr                           0x0000028d   Thumb Code     4  rt_memclr.o(.text)
    __rt_memclr                              0x0000028d   Thumb Code     0  rt_memclr.o(.text)
    __aeabi_memclr4                          0x00000291   Thumb Code     0  rt_memclr.o(.text)
    __aeabi_memclr8                          0x00000291   Thumb Code     0  rt_memclr.o(.text)
    __rt_memclr_w                            0x00000291   Thumb Code     4  rt_memclr.o(.text)
    __use_two_region_memory                  0x00000295   Thumb Code     2  heapauxi.o(.text)
    __rt_heap_escrow$2region                 0x00000297   Thumb Code     2  heapauxi.o(.text)
    __rt_heap_expand$2region                 0x00000299   Thumb Code     2  heapauxi.o(.text)
    __aeabi_i2d_normalise                    0x0000029b   Thumb Code    66  dflti.o(.text)
    __aeabi_i2d                              0x000002dd   Thumb Code    16  dflti.o(.text)
    _dflt                                    0x000002dd   Thumb Code     0  dflti.o(.text)
    __aeabi_ui2d                             0x000002ed   Thumb Code     6  dflti.o(.text)
    _dfltu                                   0x000002ed   Thumb Code     0  dflti.o(.text)
    __rt_locale                              0x000002f5   Thumb Code     8  rt_locale_intlibspace.o(.text)
    __printf                                 0x00000301   Thumb Code   270  __printf_wp.o(.text)
    __aeabi_uidiv                            0x0000040f   Thumb Code     0  aeabi_sdiv.o(.text)
    __aeabi_uidivmod                         0x0000040f   Thumb Code    20  aeabi_sdiv.o(.text)
    __aeabi_idiv                             0x00000423   Thumb Code     0  aeabi_sdiv.o(.text)
    __aeabi_idivmod                          0x00000423   Thumb Code   326  aeabi_sdiv.o(.text)
    __aeabi_d2f                              0x00000569   Thumb Code     0  d2f.o(.text)
    _d2f                                     0x00000569   Thumb Code   120  d2f.o(.text)
    __aeabi_dmul                             0x000005e5   Thumb Code     0  dmul.o(.text)
    _dmul                                    0x000005e5   Thumb Code   558  dmul.o(.text)
    __aeabi_f2d                              0x0000082d   Thumb Code     0  f2d.o(.text)
    _f2d                                     0x0000082d   Thumb Code    80  f2d.o(.text)
    __aeabi_f2iz                             0x00000881   Thumb Code     0  ffixi.o(.text)
    _ffix                                    0x00000881   Thumb Code    76  ffixi.o(.text)
    __aeabi_i2f_normalise                    0x000008cd   Thumb Code    72  fflti.o(.text)
    __aeabi_i2f                              0x00000915   Thumb Code    16  fflti.o(.text)
    _fflt                                    0x00000915   Thumb Code     0  fflti.o(.text)
    __aeabi_ui2f                             0x00000925   Thumb Code     6  fflti.o(.text)
    _ffltu                                   0x00000925   Thumb Code     0  fflti.o(.text)
    __lib_sel_fp_printf                      0x0000092d   Thumb Code     2  _printf_fp_dec.o(.text)
    _printf_fp_dec_real                      0x00000acb   Thumb Code   620  _printf_fp_dec.o(.text)
    _printf_char_file                        0x00000d45   Thumb Code    34  _printf_char_file.o(.text)
    __fpl_dcmp_InfNaN                        0x00000d6d   Thumb Code   140  dcmpin.o(.text)
    _ll_udiv10                               0x00000dfd   Thumb Code   122  lludiv10.o(.text)
    _printf_char_common                      0x00000e83   Thumb Code    32  _printf_char_common.o(.text)
    _printf_fp_infnan                        0x00000ea9   Thumb Code   120  _printf_fp_infnan.o(.text)
    _btod_etento                             0x00000f31   Thumb Code   210  bigflt0.o(.text)
    _btod_d2e                                0x00001009   Thumb Code    64  btod.o(.text)
    _btod_emul                               0x0000143d   Thumb Code    28  btod.o(.text)
    _btod_emuld                              0x00001459   Thumb Code   144  btod.o(.text)
    _btod_ediv                               0x000014e9   Thumb Code    26  btod.o(.text)
    _btod_edivd                              0x00001503   Thumb Code   124  btod.o(.text)
    __rt_udiv10                              0x00001589   Thumb Code    40  rtudiv10.o(.text)
    __fpl_cmpreturn                          0x000015b1   Thumb Code    46  cmpret.o(.text)
    __fpl_dcheck_NaN2                        0x000015e1   Thumb Code    14  dnan2.o(.text)
    __user_libspace                          0x000015f5   Thumb Code     8  libspace.o(.text)
    __user_perproc_libspace                  0x000015f5   Thumb Code     0  libspace.o(.text)
    __user_perthread_libspace                0x000015f5   Thumb Code     0  libspace.o(.text)
    __user_setup_stackheap                   0x000015fd   Thumb Code    62  sys_stackheap_outer.o(.text)
    exit                                     0x0000163b   Thumb Code    16  exit.o(.text)
    strcmp                                   0x0000164d   Thumb Code   132  strcmp.o(.text)
    __fpl_return_NaN                         0x000016d5   Thumb Code    94  retnan.o(.text)
    I2C_IRQHandler                           0x00001735   Thumb Code   686  i2c.o(i.I2C_IRQHandler)
    LedOff                                   0x000019e9   Thumb Code     8  led.o(i.LedOff)
    LedOn                                    0x000019f5   Thumb Code     8  led.o(i.LedOn)
    LedOutputCfg                             0x00001a01   Thumb Code    38  led.o(i.LedOutputCfg)
    SysTick_Handler                          0x00001a3d   Thumb Code    12  interrupt_handler_utility.o(i.SysTick_Handler)
    SystemInit                               0x00001a4d   Thumb Code   108  system_lpc11xx.o(i.SystemInit)
    UartConfig                               0x00001ac1   Thumb Code    66  uart.o(i.UartConfig)
    UartPutc                                 0x00001b11   Thumb Code    68  uart.o(i.UartPutc)
    __ARM_common_ll_muluu                    0x00001b59   Thumb Code    48  btod.o(i.__ARM_common_ll_muluu)
    __ARM_common_switch8                     0x00001b89   Thumb Code    28  i2c.o(i.__ARM_common_switch8)
    __ARM_fpclassify                         0x00001ba5   Thumb Code    40  fpclassify.o(i.__ARM_fpclassify)
    _is_digit                                0x00001cc1   Thumb Code    14  __printf_wp.o(i._is_digit)
    _sys_exit                                0x00001ccf   Thumb Code     4  retarget.o(i._sys_exit)
    comm_out                                 0x00001cd3   Thumb Code    16  i2c_oled.o(i.comm_out)
    comm_page_out                            0x00001ce3   Thumb Code    20  i2c_oled.o(i.comm_page_out)
    data_out                                 0x00001cf7   Thumb Code    16  i2c_oled.o(i.data_out)
    data_page_out                            0x00001d07   Thumb Code    20  i2c_oled.o(i.data_page_out)
    delay_ms                                 0x00001d1d   Thumb Code    20  interrupt_handler_utility.o(i.delay_ms)
    ferror                                   0x00001d35   Thumb Code     8  retarget.o(i.ferror)
    fputc                                    0x00001d3d   Thumb Code    14  retarget.o(i.fputc)
    ftoa                                     0x00001d4d   Thumb Code    98  ftoa.o(i.ftoa)
    i2cConfig                                0x00001db5   Thumb Code    10  i2c.o(i.i2cConfig)
    i2cConfig_Init                           0x00001dc1   Thumb Code   134  i2c.o(i.i2cConfig_Init)
    i2cStart                                 0x00001e5d   Thumb Code    20  i2c.o(i.i2cStart)
    i2c_eeprom_byte_write                    0x00001e75   Thumb Code    28  i2c_eeprom.o(i.i2c_eeprom_byte_write)
    i2c_eeprom_common_write                  0x00001e91   Thumb Code   132  i2c_eeprom.o(i.i2c_eeprom_common_write)
    i2c_eeprom_page_write                    0x00001f1d   Thumb Code    44  i2c_eeprom.o(i.i2c_eeprom_page_write)
    i2c_eeprom_random_read                   0x00001f49   Thumb Code    34  i2c_eeprom.o(i.i2c_eeprom_random_read)
    init_oled                                0x00001f6d   Thumb Code    78  i2c_oled.o(i.init_oled)
    intToStr                                 0x00001fdd   Thumb Code    72  ftoa.o(i.intToStr)
    main                                     0x00002025   Thumb Code   214  main.o(i.main)
    oled_clrPixel                            0x00002169   Thumb Code    54  i2c_oled.o(i.oled_clrPixel)
    oled_clrScr                              0x000021a5   Thumb Code    14  i2c_oled.o(i.oled_clrScr)
    oled_print                               0x000021b9   Thumb Code    84  i2c_oled.o(i.oled_print)
    oled_printNumF                           0x00002215   Thumb Code   164  i2c_oled.o(i.oled_printNumF)
    oled_print_char                          0x000022b9   Thumb Code   316  i2c_oled.o(i.oled_print_char)
    oled_setFont                             0x000023f9   Thumb Code    24  i2c_oled.o(i.oled_setFont)
    oled_setPixel                            0x00002415   Thumb Code    54  i2c_oled.o(i.oled_setPixel)
    oled_update                              0x00002451   Thumb Code     8  i2c_oled.o(i.oled_update)
    pixel_on                                 0x00002459   Thumb Code    86  i2c_oled.o(i.pixel_on)
    reverse                                  0x000024b9   Thumb Code    28  ftoa.o(i.reverse)
    tmp102_oneShot                           0x000024d5   Thumb Code    82  i2c_tmp102.o(i.tmp102_oneShot)
    tmp102_readTempC                         0x0000252d   Thumb Code   106  i2c_tmp102.o(i.tmp102_readTempC)
    tmp102_setExtendedMode                   0x000025a5   Thumb Code    58  i2c_tmp102.o(i.tmp102_setExtendedMode)
    tmp102_sleep                             0x000025e5   Thumb Code    44  i2c_tmp102.o(i.tmp102_sleep)
    _get_lc_numeric                          0x00002615   Thumb Code    44  lc_numeric_c.o(locale$$code)
    __aeabi_cdcmple                          0x00002641   Thumb Code     0  dlef.o(x$fpl$dleqf)
    _dcmple                                  0x00002641   Thumb Code    94  dlef.o(x$fpl$dleqf)
    __aeabi_fadd                             0x000026a5   Thumb Code     0  faddsub.o(x$fpl$fadd)
    _fadd                                    0x000026a5   Thumb Code   134  faddsub.o(x$fpl$fadd)
    __aeabi_fmul                             0x00002731   Thumb Code     0  fmul.o(x$fpl$fmul)
    _fmul                                    0x00002731   Thumb Code   172  fmul.o(x$fpl$fmul)
    __aeabi_frsub                            0x000027e1   Thumb Code     0  faddsub.o(x$fpl$frsb)
    _frsb                                    0x000027e1   Thumb Code    24  faddsub.o(x$fpl$frsb)
    __aeabi_fsub                             0x000027f9   Thumb Code     0  faddsub.o(x$fpl$fsub)
    _fsub                                    0x000027f9   Thumb Code   204  faddsub.o(x$fpl$fsub)
    _printf_fp_dec                           0x000028c9   Thumb Code    16  printf1.o(x$fpl$printf1)
    SmallFont                                0x000028d8   Data         574  oled_font.o(.constdata)
    __I$use$fp                               0x000028d8   Number         0  usenofp.o(x$fpl$usenofp)
    MediumNumbers                            0x00002b16   Data         316  oled_font.o(.constdata)
    BigNumbers                               0x00002c52   Data         550  oled_font.o(.constdata)
    Region$$Table$$Base                      0x00002f0c   Number         0  anon$$obj.o(Region$$Table)
    Region$$Table$$Limit                     0x00002f2c   Number         0  anon$$obj.o(Region$$Table)
    pi2c_data                                0x10000000   Data           4  i2c.o(.data)
    ADDRESS_SIZE                             0x10000004   Data           4  i2c_eeprom.o(.data)
    __stdout                                 0x10000008   Data           4  retarget.o(.data)
    __stdin                                  0x1000000c   Data           4  retarget.o(.data)
    TickCount                                0x10000010   Data           4  interrupt_handler_utility.o(.data)
    i2c_eeprom_data                          0x10000014   Data          32  i2c_eeprom.o(.bss)
    scrbuf                                   0x10000034   Data         360  i2c_oled.o(.bss)
    cfont                                    0x1000019c   Data          12  i2c_oled.o(.bss)
    __libspace_start                         0x100001a8   Data          96  libspace.o(.bss)
    __temporary_stack_top$libspace           0x10000208   Data           0  libspace.o(.bss)



==============================================================================

Memory Map of the image

  Image Entry point : 0x000000c1

  Load Region LR_IROM1 (Base: 0x00000000, Size: 0x00002f5c, Max: 0x00008000, ABSOLUTE)

    Execution Region ER_IROM1 (Exec base: 0x00000000, Load base: 0x00000000, Size: 0x00002f48, Max: 0x00008000, ABSOLUTE)

    Exec Addr    Load Addr    Size         Type   Attr      Idx    E Section Name        Object

    0x00000000   0x00000000   0x000000c0   Data   RO          631    RESET               startup_lpc11xx.o
    0x000000c0   0x000000c0   0x00000008   Code   RO          725  * !!!main             c_p.l(__main.o)
    0x000000c8   0x000000c8   0x0000003c   Code   RO          962    !!!scatter          c_p.l(__scatter.o)
    0x00000104   0x00000104   0x0000001a   Code   RO          964    !!handler_copy      c_p.l(__scatter_copy.o)
    0x0000011e   0x0000011e   0x00000002   PAD
    0x00000120   0x00000120   0x0000001c   Code   RO          966    !!handler_zi        c_p.l(__scatter_zi.o)
    0x0000013c   0x0000013c   0x00000002   Code   RO          708    .ARM.Collect$$_printf_percent$$00000000  c_p.l(_printf_percent.o)
    0x0000013e   0x0000013e   0x0000000a   Code   RO          707    .ARM.Collect$$_printf_percent$$00000003  c_p.l(_printf_f.o)
    0x00000148   0x00000148   0x00000004   Code   RO          765    .ARM.Collect$$_printf_percent$$00000017  c_p.l(_printf_percent_end.o)
    0x0000014c   0x0000014c   0x00000002   Code   RO          838    .ARM.Collect$$libinit$$00000000  c_p.l(libinit.o)
    0x0000014e   0x0000014e   0x00000000   Code   RO          840    .ARM.Collect$$libinit$$00000002  c_p.l(libinit2.o)
    0x0000014e   0x0000014e   0x00000000   Code   RO          842    .ARM.Collect$$libinit$$00000004  c_p.l(libinit2.o)
    0x0000014e   0x0000014e   0x00000000   Code   RO          845    .ARM.Collect$$libinit$$0000000A  c_p.l(libinit2.o)
    0x0000014e   0x0000014e   0x00000000   Code   RO          847    .ARM.Collect$$libinit$$0000000C  c_p.l(libinit2.o)
    0x0000014e   0x0000014e   0x00000000   Code   RO          849    .ARM.Collect$$libinit$$0000000E  c_p.l(libinit2.o)
    0x0000014e   0x0000014e   0x00000006   Code   RO          850    .ARM.Collect$$libinit$$0000000F  c_p.l(libinit2.o)
    0x00000154   0x00000154   0x00000000   Code   RO          852    .ARM.Collect$$libinit$$00000011  c_p.l(libinit2.o)
    0x00000154   0x00000154   0x00000000   Code   RO          854    .ARM.Collect$$libinit$$00000013  c_p.l(libinit2.o)
    0x00000154   0x00000154   0x00000000   Code   RO          856    .ARM.Collect$$libinit$$00000015  c_p.l(libinit2.o)
    0x00000154   0x00000154   0x0000000a   Code   RO          857    .ARM.Collect$$libinit$$00000016  c_p.l(libinit2.o)
    0x0000015e   0x0000015e   0x00000000   Code   RO          858    .ARM.Collect$$libinit$$00000017  c_p.l(libinit2.o)
    0x0000015e   0x0000015e   0x00000000   Code   RO          860    .ARM.Collect$$libinit$$00000019  c_p.l(libinit2.o)
    0x0000015e   0x0000015e   0x00000000   Code   RO          862    .ARM.Collect$$libinit$$0000001B  c_p.l(libinit2.o)
    0x0000015e   0x0000015e   0x00000000   Code   RO          864    .ARM.Collect$$libinit$$0000001D  c_p.l(libinit2.o)
    0x0000015e   0x0000015e   0x00000000   Code   RO          866    .ARM.Collect$$libinit$$0000001F  c_p.l(libinit2.o)
    0x0000015e   0x0000015e   0x00000000   Code   RO          868    .ARM.Collect$$libinit$$00000021  c_p.l(libinit2.o)
    0x0000015e   0x0000015e   0x00000000   Code   RO          870    .ARM.Collect$$libinit$$00000023  c_p.l(libinit2.o)
    0x0000015e   0x0000015e   0x00000000   Code   RO          872    .ARM.Collect$$libinit$$00000025  c_p.l(libinit2.o)
    0x0000015e   0x0000015e   0x00000000   Code   RO          876    .ARM.Collect$$libinit$$0000002C  c_p.l(libinit2.o)
    0x0000015e   0x0000015e   0x00000000   Code   RO          878    .ARM.Collect$$libinit$$0000002E  c_p.l(libinit2.o)
    0x0000015e   0x0000015e   0x00000000   Code   RO          880    .ARM.Collect$$libinit$$00000030  c_p.l(libinit2.o)
    0x0000015e   0x0000015e   0x00000000   Code   RO          882    .ARM.Collect$$libinit$$00000032  c_p.l(libinit2.o)
    0x0000015e   0x0000015e   0x00000002   Code   RO          883    .ARM.Collect$$libinit$$00000033  c_p.l(libinit2.o)
    0x00000160   0x00000160   0x00000002   Code   RO          926    .ARM.Collect$$libshutdown$$00000000  c_p.l(libshutdown.o)
    0x00000162   0x00000162   0x00000000   Code   RO          945    .ARM.Collect$$libshutdown$$00000002  c_p.l(libshutdown2.o)
    0x00000162   0x00000162   0x00000000   Code   RO          947    .ARM.Collect$$libshutdown$$00000004  c_p.l(libshutdown2.o)
    0x00000162   0x00000162   0x00000000   Code   RO          950    .ARM.Collect$$libshutdown$$00000007  c_p.l(libshutdown2.o)
    0x00000162   0x00000162   0x00000000   Code   RO          953    .ARM.Collect$$libshutdown$$0000000A  c_p.l(libshutdown2.o)
    0x00000162   0x00000162   0x00000000   Code   RO          955    .ARM.Collect$$libshutdown$$0000000C  c_p.l(libshutdown2.o)
    0x00000162   0x00000162   0x00000000   Code   RO          958    .ARM.Collect$$libshutdown$$0000000F  c_p.l(libshutdown2.o)
    0x00000162   0x00000162   0x00000002   Code   RO          959    .ARM.Collect$$libshutdown$$00000010  c_p.l(libshutdown2.o)
    0x00000164   0x00000164   0x00000000   Code   RO          756    .ARM.Collect$$rtentry$$00000000  c_p.l(__rtentry.o)
    0x00000164   0x00000164   0x00000000   Code   RO          770    .ARM.Collect$$rtentry$$00000002  c_p.l(__rtentry2.o)
    0x00000164   0x00000164   0x00000006   Code   RO          782    .ARM.Collect$$rtentry$$00000004  c_p.l(__rtentry4.o)
    0x0000016a   0x0000016a   0x00000000   Code   RO          772    .ARM.Collect$$rtentry$$00000009  c_p.l(__rtentry2.o)
    0x0000016a   0x0000016a   0x00000004   Code   RO          773    .ARM.Collect$$rtentry$$0000000A  c_p.l(__rtentry2.o)
    0x0000016e   0x0000016e   0x00000000   Code   RO          775    .ARM.Collect$$rtentry$$0000000C  c_p.l(__rtentry2.o)
    0x0000016e   0x0000016e   0x00000008   Code   RO          776    .ARM.Collect$$rtentry$$0000000D  c_p.l(__rtentry2.o)
    0x00000176   0x00000176   0x00000002   Code   RO          887    .ARM.Collect$$rtexit$$00000000  c_p.l(rtexit.o)
    0x00000178   0x00000178   0x00000000   Code   RO          900    .ARM.Collect$$rtexit$$00000002  c_p.l(rtexit2.o)
    0x00000178   0x00000178   0x00000004   Code   RO          901    .ARM.Collect$$rtexit$$00000003  c_p.l(rtexit2.o)
    0x0000017c   0x0000017c   0x00000006   Code   RO          902    .ARM.Collect$$rtexit$$00000004  c_p.l(rtexit2.o)
    0x00000182   0x00000182   0x00000002   PAD
    0x00000184   0x00000184   0x00000038   Code   RO          711    .emb_text           c_p.l(rt_memcpy.o)
    0x000001bc   0x000001bc   0x00000034   Code   RO          633    .text               startup_lpc11xx.o
    0x000001f0   0x000001f0   0x00000002   Code   RO          679    .text               c_p.l(use_no_semi.o)
    0x000001f2   0x000001f2   0x00000002   PAD
    0x000001f4   0x000001f4   0x0000001c   Code   RO          683    .text               c_p.l(noretval__2printf.o)
    0x00000210   0x00000210   0x00000044   Code   RO          709    .text               c_p.l(strlen.o)
    0x00000254   0x00000254   0x00000040   Code   RO          717    .text               c_p.l(rt_memclr.o)
    0x00000294   0x00000294   0x00000006   Code   RO          723    .text               c_p.l(heapauxi.o)
    0x0000029a   0x0000029a   0x00000058   Code   RO          734    .text               fz_ps.l(dflti.o)
    0x000002f2   0x000002f2   0x00000002   PAD
    0x000002f4   0x000002f4   0x00000008   Code   RO          789    .text               c_p.l(rt_locale_intlibspace.o)
    0x000002fc   0x000002fc   0x00000004   Code   RO          632    .ARM.__at_0x02FC    startup_lpc11xx.o
    0x00000300   0x00000300   0x0000010e   Code   RO          695    .text               c_p.l(__printf_wp.o)
    0x0000040e   0x0000040e   0x0000015a   Code   RO          719    .text               c_p.l(aeabi_sdiv.o)
    0x00000568   0x00000568   0x0000007c   Code   RO          727    .text               fz_ps.l(d2f.o)
    0x000005e4   0x000005e4   0x00000248   Code   RO          738    .text               fz_ps.l(dmul.o)
    0x0000082c   0x0000082c   0x00000054   Code   RO          740    .text               fz_ps.l(f2d.o)
    0x00000880   0x00000880   0x0000004c   Code   RO          748    .text               fz_ps.l(ffixi.o)
    0x000008cc   0x000008cc   0x0000005e   Code   RO          750    .text               fz_ps.l(fflti.o)
    0x0000092a   0x0000092a   0x00000002   PAD
    0x0000092c   0x0000092c   0x00000418   Code   RO          761    .text               c_p.l(_printf_fp_dec.o)
    0x00000d44   0x00000d44   0x00000028   Code   RO          763    .text               c_p.l(_printf_char_file.o)
    0x00000d6c   0x00000d6c   0x00000090   Code   RO          766    .text               fz_ps.l(dcmpin.o)
    0x00000dfc   0x00000dfc   0x0000007a   Code   RO          791    .text               c_p.l(lludiv10.o)
    0x00000e76   0x00000e76   0x00000002   PAD
    0x00000e78   0x00000e78   0x00000030   Code   RO          793    .text               c_p.l(_printf_char_common.o)
    0x00000ea8   0x00000ea8   0x00000088   Code   RO          795    .text               c_p.l(_printf_fp_infnan.o)
    0x00000f30   0x00000f30   0x000000d8   Code   RO          797    .text               c_p.l(bigflt0.o)
    0x00001008   0x00001008   0x00000580   Code   RO          800    .text               c_p.l(btod.o)
    0x00001588   0x00001588   0x00000028   Code   RO          807    .text               c_p.l(rtudiv10.o)
    0x000015b0   0x000015b0   0x0000002e   Code   RO          809    .text               fz_ps.l(cmpret.o)
    0x000015de   0x000015de   0x00000002   PAD
    0x000015e0   0x000015e0   0x00000014   Code   RO          811    .text               fz_ps.l(dnan2.o)
    0x000015f4   0x000015f4   0x00000008   Code   RO          817    .text               c_p.l(libspace.o)
    0x000015fc   0x000015fc   0x0000003e   Code   RO          820    .text               c_p.l(sys_stackheap_outer.o)
    0x0000163a   0x0000163a   0x00000010   Code   RO          825    .text               c_p.l(exit.o)
    0x0000164a   0x0000164a   0x00000002   PAD
    0x0000164c   0x0000164c   0x00000088   Code   RO          831    .text               c_p.l(strcmp.o)
    0x000016d4   0x000016d4   0x0000005e   Code   RO          884    .text               fz_ps.l(retnan.o)
    0x00001732   0x00001732   0x00000002   PAD
    0x00001734   0x00001734   0x000002b4   Code   RO            3    i.I2C_IRQHandler    i2c.o
    0x000019e8   0x000019e8   0x0000000c   Code   RO          366    i.LedOff            led.o
    0x000019f4   0x000019f4   0x0000000c   Code   RO          367    i.LedOn             led.o
    0x00001a00   0x00001a00   0x0000003c   Code   RO          368    i.LedOutputCfg      led.o
    0x00001a3c   0x00001a3c   0x00000010   Code   RO          602    i.SysTick_Handler   interrupt_handler_utility.o
    0x00001a4c   0x00001a4c   0x00000074   Code   RO          642    i.SystemInit        system_lpc11xx.o
    0x00001ac0   0x00001ac0   0x00000050   Code   RO          407    i.UartConfig        uart.o
    0x00001b10   0x00001b10   0x00000048   Code   RO          409    i.UartPutc          uart.o
    0x00001b58   0x00001b58   0x00000030   Code   RO          802    i.__ARM_common_ll_muluu  c_p.l(btod.o)
    0x00001b88   0x00001b88   0x0000001c   Code   RO           51    i.__ARM_common_switch8  i2c.o
    0x00001ba4   0x00001ba4   0x0000002c   Code   RO          815    i.__ARM_fpclassify  m_ps.l(fpclassify.o)
    0x00001bd0   0x00001bd0   0x00000078   Code   RO            4    i.__NVIC_SetPriority  i2c.o
    0x00001c48   0x00001c48   0x00000078   Code   RO          551    i.__NVIC_SetPriority  main.o
    0x00001cc0   0x00001cc0   0x0000000e   Code   RO          697    i._is_digit         c_p.l(__printf_wp.o)
    0x00001cce   0x00001cce   0x00000004   Code   RO          460    i._sys_exit         retarget.o
    0x00001cd2   0x00001cd2   0x00000010   Code   RO          230    i.comm_out          i2c_oled.o
    0x00001ce2   0x00001ce2   0x00000014   Code   RO          231    i.comm_page_out     i2c_oled.o
    0x00001cf6   0x00001cf6   0x00000010   Code   RO          232    i.data_out          i2c_oled.o
    0x00001d06   0x00001d06   0x00000014   Code   RO          233    i.data_page_out     i2c_oled.o
    0x00001d1a   0x00001d1a   0x00000002   PAD
    0x00001d1c   0x00001d1c   0x00000018   Code   RO          603    i.delay_ms          interrupt_handler_utility.o
    0x00001d34   0x00001d34   0x00000008   Code   RO          462    i.ferror            retarget.o
    0x00001d3c   0x00001d3c   0x0000000e   Code   RO          464    i.fputc             retarget.o
    0x00001d4a   0x00001d4a   0x00000002   PAD
    0x00001d4c   0x00001d4c   0x00000068   Code   RO          521    i.ftoa              ftoa.o
    0x00001db4   0x00001db4   0x0000000a   Code   RO            5    i.i2cConfig         i2c.o
    0x00001dbe   0x00001dbe   0x00000002   PAD
    0x00001dc0   0x00001dc0   0x0000009c   Code   RO            6    i.i2cConfig_Init    i2c.o
    0x00001e5c   0x00001e5c   0x00000018   Code   RO            7    i.i2cStart          i2c.o
    0x00001e74   0x00001e74   0x0000001c   Code   RO           86    i.i2c_eeprom_byte_write  i2c_eeprom.o
    0x00001e90   0x00001e90   0x0000008c   Code   RO           87    i.i2c_eeprom_common_write  i2c_eeprom.o
    0x00001f1c   0x00001f1c   0x0000002c   Code   RO           89    i.i2c_eeprom_page_write  i2c_eeprom.o
    0x00001f48   0x00001f48   0x00000022   Code   RO           90    i.i2c_eeprom_random_read  i2c_eeprom.o
    0x00001f6a   0x00001f6a   0x00000002   PAD
    0x00001f6c   0x00001f6c   0x00000070   Code   RO          234    i.init_oled         i2c_oled.o
    0x00001fdc   0x00001fdc   0x00000048   Code   RO          522    i.intToStr          ftoa.o
    0x00002024   0x00002024   0x00000144   Code   RO          552    i.main              main.o
    0x00002168   0x00002168   0x0000003c   Code   RO          235    i.oled_clrPixel     i2c_oled.o
    0x000021a4   0x000021a4   0x00000014   Code   RO          236    i.oled_clrScr       i2c_oled.o
    0x000021b8   0x000021b8   0x0000005c   Code   RO          239    i.oled_print        i2c_oled.o
    0x00002214   0x00002214   0x000000a4   Code   RO          240    i.oled_printNumF    i2c_oled.o
    0x000022b8   0x000022b8   0x00000140   Code   RO          242    i.oled_print_char   i2c_oled.o
    0x000023f8   0x000023f8   0x0000001c   Code   RO          243    i.oled_setFont      i2c_oled.o
    0x00002414   0x00002414   0x0000003c   Code   RO          244    i.oled_setPixel     i2c_oled.o
    0x00002450   0x00002450   0x00000008   Code   RO          246    i.oled_update       i2c_oled.o
    0x00002458   0x00002458   0x00000060   Code   RO          247    i.pixel_on          i2c_oled.o
    0x000024b8   0x000024b8   0x0000001c   Code   RO          523    i.reverse           ftoa.o
    0x000024d4   0x000024d4   0x00000058   Code   RO          161    i.tmp102_oneShot    i2c_tmp102.o
    0x0000252c   0x0000252c   0x00000078   Code   RO          162    i.tmp102_readTempC  i2c_tmp102.o
    0x000025a4   0x000025a4   0x00000040   Code   RO          165    i.tmp102_setExtendedMode  i2c_tmp102.o
    0x000025e4   0x000025e4   0x00000030   Code   RO          166    i.tmp102_sleep      i2c_tmp102.o
    0x00002614   0x00002614   0x0000002c   Code   RO          805    locale$$code        c_p.l(lc_numeric_c.o)
    0x00002640   0x00002640   0x00000064   Code   RO          736    x$fpl$dleqf         fz_ps.l(dlef.o)
    0x000026a4   0x000026a4   0x0000008c   Code   RO          742    x$fpl$fadd          fz_ps.l(faddsub.o)
    0x00002730   0x00002730   0x000000b0   Code   RO          752    x$fpl$fmul          fz_ps.l(fmul.o)
    0x000027e0   0x000027e0   0x00000018   Code   RO          743    x$fpl$frsb          fz_ps.l(faddsub.o)
    0x000027f8   0x000027f8   0x000000d0   Code   RO          744    x$fpl$fsub          fz_ps.l(faddsub.o)
    0x000028c8   0x000028c8   0x00000010   Code   RO          754    x$fpl$printf1       fz_ps.l(printf1.o)
    0x000028d8   0x000028d8   0x00000000   Code   RO          768    x$fpl$usenofp       fz_ps.l(usenofp.o)
    0x000028d8   0x000028d8   0x000005a0   Data   RO          512    .constdata          oled_font.o
    0x00002e78   0x00002e78   0x00000094   Data   RO          798    .constdata          c_p.l(bigflt0.o)
    0x00002f0c   0x00002f0c   0x00000020   Data   RO          960    Region$$Table       anon$$obj.o
    0x00002f2c   0x00002f2c   0x0000001c   Data   RO          804    locale$$data        c_p.l(lc_numeric_c.o)


    Execution Region RW_IRAM1 (Exec base: 0x10000000, Load base: 0x00002f48, Size: 0x00000408, Max: 0x00001000, ABSOLUTE)

    Exec Addr    Load Addr    Size         Type   Attr      Idx    E Section Name        Object

    0x10000000   0x00002f48   0x00000004   Data   RW            9    .data               i2c.o
    0x10000004   0x00002f4c   0x00000004   Data   RW           94    .data               i2c_eeprom.o
    0x10000008   0x00002f50   0x00000008   Data   RW          465    .data               retarget.o
    0x10000010   0x00002f58   0x00000004   Data   RW          604    .data               interrupt_handler_utility.o
    0x10000014        -       0x00000020   Zero   RW           93    .bss                i2c_eeprom.o
    0x10000034        -       0x00000174   Zero   RW          248    .bss                i2c_oled.o
    0x100001a8        -       0x00000060   Zero   RW          818    .bss                c_p.l(libspace.o)
    0x10000208        -       0x00000000   Zero   RW          630    HEAP                startup_lpc11xx.o
    0x10000208        -       0x00000200   Zero   RW          629    STACK               startup_lpc11xx.o


==============================================================================

Image component sizes


      Code (inc. data)   RO Data    RW Data    ZI Data      Debug   Object Name

       204          6          0          0          0       1952   ftoa.o
      1030         56          0          4          0      23493   i2c.o
       246          8          0          4         32       3498   i2c_eeprom.o
      1032         78          0          0        372      11052   i2c_oled.o
       320         30          0          0          0       2112   i2c_tmp102.o
        40          8          0          4          0       1121   interrupt_handler_utility.o
        84         30          0          0          0       1144   led.o
       444        120          0          0          0       8295   main.o
         0          0       1440          0          0        649   oled_font.o
        26          0          0          8          0       3147   retarget.o
        56         26        192          0        512        876   startup_lpc11xx.o
       116          8          0          0          0       1613   system_lpc11xx.o
       152         18          0          0          0        932   uart.o

    ----------------------------------------------------------------------
      3758        388       1664         20        916      59884   Object Totals
         0          0         32          0          0          0   (incl. Generated)
         8          0          0          0          0          0   (incl. Padding)

    ----------------------------------------------------------------------

      Code (inc. data)   RO Data    RW Data    ZI Data      Debug   Library Member Name

         8          0          0          0          0         68   __main.o
       284          0          0          0          0        136   __printf_wp.o
         0          0          0          0          0          0   __rtentry.o
        12          0          0          0          0          0   __rtentry2.o
         6          0          0          0          0          0   __rtentry4.o
        60          8          0          0          0          0   __scatter.o
        26          0          0          0          0          0   __scatter_copy.o
        28          0          0          0          0          0   __scatter_zi.o
        48          6          0          0          0         88   _printf_char_common.o
        40          6          0          0          0         72   _printf_char_file.o
        10          0          0          0          0          0   _printf_f.o
      1048         14          0          0          0        176   _printf_fp_dec.o
       136         16          0          0          0         76   _printf_fp_infnan.o
         2          0          0          0          0          0   _printf_percent.o
         4          0          0          0          0          0   _printf_percent_end.o
       346          0          0          0          0         92   aeabi_sdiv.o
       216          6        148          0          0         80   bigflt0.o
      1456         30          0          0          0        336   btod.o
        16          0          0          0          0         68   exit.o
         6          0          0          0          0        136   heapauxi.o
        44         10         28          0          0         76   lc_numeric_c.o
         2          0          0          0          0          0   libinit.o
        18          0          0          0          0          0   libinit2.o
         2          0          0          0          0          0   libshutdown.o
         2          0          0          0          0          0   libshutdown2.o
         8          4          0          0         96         68   libspace.o
       122          0          0          0          0         72   lludiv10.o
        28          6          0          0          0         84   noretval__2printf.o
         8          4          0          0          0         68   rt_locale_intlibspace.o
        64          0          0          0          0        108   rt_memclr.o
        56          0          0          0          0         68   rt_memcpy.o
         2          0          0          0          0          0   rtexit.o
        10          0          0          0          0          0   rtexit2.o
        40          0          0          0          0         60   rtudiv10.o
       136          4          0          0          0         72   strcmp.o
        68          6          0          0          0         72   strlen.o
        62          0          0          0          0         80   sys_stackheap_outer.o
         2          0          0          0          0         68   use_no_semi.o
        46          0          0          0          0         60   cmpret.o
       124          4          0          0          0         72   d2f.o
       144          4          0          0          0         76   dcmpin.o
        88          0          0          0          0         92   dflti.o
       100          4          0          0          0         92   dlef.o
       584         26          0          0          0         84   dmul.o
        20          6          0          0          0         68   dnan2.o
        84          4          0          0          0         60   f2d.o
       372          8          0          0          0        240   faddsub.o
        76          0          0          0          0         68   ffixi.o
        94          0          0          0          0         92   fflti.o
       176          4          0          0          0         80   fmul.o
        16          4          0          0          0         76   printf1.o
        94          0          0          0          0         68   retnan.o
         0          0          0          0          0          0   usenofp.o
        44          4          0          0          0         60   fpclassify.o

    ----------------------------------------------------------------------
      6506        188        176          0         96       3512   Library Totals
        18          0          0          0          0          0   (incl. Padding)

    ----------------------------------------------------------------------

      Code (inc. data)   RO Data    RW Data    ZI Data      Debug   Library Name

      4426        120        176          0         96       2224   c_p.l
      2018         64          0          0          0       1228   fz_ps.l
        44          4          0          0          0         60   m_ps.l

    ----------------------------------------------------------------------
      6506        188        176          0         96       3512   Library Totals

    ----------------------------------------------------------------------

==============================================================================


      Code (inc. data)   RO Data    RW Data    ZI Data      Debug   

     10264        576       1840         20       1012      59836   Grand Totals
     10264        576       1840         20       1012      59836   ELF Image Totals
     10264        576       1840         20          0          0   ROM Totals

==============================================================================

    Total RO  Size (Code + RO Data)                12104 (  11.82kB)
    Total RW  Size (RW Data + ZI Data)              1032 (   1.01kB)
    Total ROM Size (Code + RO Data + RW Data)      12124 (  11.84kB)

==============================================================================

